:100000000C942A000C943F000C943F000C943F0089
:100010000C943F000C943F000C943F000C943F0064
:100020000C943F000C943F000C943F000C943F0054
:100030000C943F000C943F000C943F000C943F0044
:100040000C943F000C943F000C943F000C943F0034
:100050000C943F0011241FBECFE5D8E0DEBFCDBF1A
:1000600010E0A0E6B0E0E4E7FCE202C005900D92EB
:10007000A63AB107D9F70E9497110C9438160C9440
:100080000000EF92FF920F931F937B018C0120E001
:1000900030E040E05FE40E94410388238CF0C80117
:1000A000B70120E030E040E05FE40E94B9010E9427
:1000B000A1039B01AC01205030404040504806C095
:1000C000C801B7010E94A1039B01AC01B901CA019B
:1000D0001F910F91FF90EF900895A0E0B0E0E3E74B
:1000E000F0E00C940116DC012B01FA019C91923096
:1000F00008F439C1EB018881823008F433C19430AF
:1001000069F4843009F02FC111969C91119789816F
:10011000981709F428C1A5E7B0E025C1843009F497
:1001200021C18230A9F4923009F01DC19A01AD01BC
:1001300088E0EA010990AE01E90109929E0181502F
:10014000C1F7E201898111969C918923818308C1BD
:10015000923009F407C112962D903C901397EB0151
:100160008A819B811496AD90BD90CD90DC901797BD
:10017000EC80FD800E811F819101281B390BB90194
:1001800037FF04C066277727621B730B6032710547
:100190000CF061C0121613066CF537014801062EEB
:1001A00004C096948794779467940A94D2F721E0D8
:1001B00030E040E050E004C0220F331F441F551FC1
:1001C0006A95D2F721503040404050402E213F21C7
:1001D00040235123211531054105510521F021E02E
:1001E00030E040E050E079018A01E628F72808294C
:1001F00019293CC0232BD1F1260E371E35014601AB
:10020000062E04C096948794779467940A94D2F744
:1002100021E030E040E050E004C0220F331F441FD3
:10022000551F6A95D2F721503040404050402A2156
:100230003B214C215D21211531054105510521F05E
:1002400021E030E040E050E059016A01A628B728DB
:10025000C828D9280BC0821593052CF01C01AA24AC
:10026000BB24650103C0EE24FF24870111969C91F5
:10027000D20111968C91981709F445C0992339F051
:10028000A80197012A193B094C095D0906C0A6017E
:1002900095012E193F09400B510B57FD08C01182E3
:1002A0003382228224833583468357831DC081E0B5
:1002B00081833382228288279927DC01821B930B5A
:1002C000A40BB50B84839583A683B7830DC0220F3F
:1002D000331F441F551F24833583468357838281F0
:1002E000938101979383828324813581468157814D
:1002F000DA01C9010197A109B1098F5F9F4FAF4F83
:10030000BF4328F30BC0918333822282EA0CFB1C8B
:100310000C1D1D1DE482F5820683178383E0808314
:10032000248135814681578157FF1AC0C901AA2708
:1003300097FDA095BA2F81709070A070B0705695FF
:10034000479537952795822B932BA42BB52B848328
:100350009583A683B7838281938101969383828359
:10036000DF0101C0D201CD01CDB7DEB7E2E10C94CF
:100370001D16A0E2B0E0EFEBF1E00C940D166983DE
:100380007A838B839C832D833E834F835887E9E058
:10039000EE2EF12CEC0EFD1ECE010196B7010E944F
:1003A000CA048E010F5E1F4FCE010596B8010E9450
:1003B000CA048A8991E089278A8BC701B801AE01F6
:1003C000475E5F4F0E946D000E94F503A096E6E035
:1003D0000C942916A0E2B0E0E0EFF1E00C940D16C9
:1003E00069837A838B839C832D833E834F835887D5
:1003F000F9E0EF2EF12CEC0EFD1ECE010196B701B7
:100400000E94CA048E010F5E1F4FCE010596B801EF
:100410000E94CA04C701B801AE01475E5F4F0E9447
:100420006D000E94F503A096E6E00C942916A0E268
:10043000B0E0EDE1F2E00C94011669837A838B83DE
:100440009C832D833E834F835887CE010196BE0146
:10045000675F7F4F0E94CA04CE010596BE016F5EA2
:100460007F4F0E94CA049985923088F08989823032
:10047000C8F0943019F4823051F404C0843029F467
:10048000923081F485E790E0C6C0923049F420E0D4
:100490009A858A89981321E02A87CE010996BBC0E4
:1004A000823049F420E09A858A89981321E02A8BCA
:1004B000CE014196B0C02D843E844F8458886D880B
:1004C0007E888F88988CEE24FF248701AA24BB2481
:1004D000650140E050E060E070E0E0E0F0E0C10184
:1004E00081709070892BE9F0E60CF71C081D191D2E
:1004F0009A01AB012A0D3B1D4C1D5D1D80E090E073
:10050000A0E0B0E0E614F7040805190520F481E046
:1005100090E0A0E0B0E0BA01A901480F591F6A1F9E
:100520007B1FAA0CBB1CCC1CDD1C97FE08C081E005
:1005300090E0A0E0B0E0A82AB92ACA2ADB2A3196C6
:10054000E032F10549F0660C771C881C991C569422
:10055000479437942794C3CFFA85EA892B893C893D
:100560008B859C85280F391F2E5F3F4F17C0CA010E
:1005700081709070892B61F016950795F794E79438
:1005800080E090E0A0E0B0E8E82AF92A0A2B1B2BD3
:1005900076956795579547952F5F3F4F77FDE7CF46
:1005A0000CC0440F551F661F771F17FD4160EE0CEE
:1005B000FF1C001F111F21503040403090E05907B0
:1005C00090E0690790E4790760F32B8F3C8FDB01A3
:1005D000CA018F779070A070B07080349105A1052A
:1005E000B10561F447FD0AC0E114F10401051105EC
:1005F00029F0405C5F4F6F4F7F4F40781A8EFE1797
:1006000011F081E08A8F4D8F5E8F6F8F78A383E02A
:10061000898FCE0149960E94F503A096E2E10C94E1
:100620001D16A8E1B0E0E7E1F3E00C940D16698334
:100630007A838B839C832D833E834F83588789E005
:10064000E82EF12CEC0EFD1ECE010196B7010E94A2
:10065000CA048E010F5E1F4FCE010596B8010E949D
:10066000CA048985823040F08989823028F0C70128
:10067000B8010E94420501C08FEF6896E6E00C9435
:100680002916A8E1B0E0E7E4F3E00C940D166983C5
:100690007A838B839C832D833E834F83588789E0A5
:1006A000E82EF12CEC0EFD1ECE010196B7010E9442
:1006B000CA048E010F5E1F4FCE010596B8010E943D
:1006C000CA048985823040F08989823028F0C701C8
:1006D000B8010E94420501C08FEF6896E6E00C94D5
:1006E0002916A8E1B0E0E7E7F3E00C940D16698362
:1006F0007A838B839C832D833E834F83588789E045
:10070000E82EF12CEC0EFD1ECE010196B7010E94E1
:10071000CA048E010F5E1F4FCE010596B8010E94DC
:10072000CA048985823040F08989823028F0C70167
:10073000B8010E94420501C081E06896E6E00C9491
:100740002916ACE0B0E0E7EAF3E00C9411166983F7
:100750007A838B839C83CE010196BE016B5F7F4FB2
:100760000E94CA048D81823061F1823050F1843060
:1007700021F48E81882351F12EC02F81388537FDD9
:1007800020C06E812F3131051CF06623F9F023C0A3
:100790008EE190E0821B930B29853A854B855C8521
:1007A00004C056954795379527958A95D2F76623C5
:1007B000B1F050954095309521953F4F4F4F5F4F89
:1007C0000EC020E030E040E050E009C02FEF3FEFE6
:1007D0004FEF5FE704C020E030E040E050E8B901AF
:1007E000CA012C96E2E00C942D16DF92EF92FF9254
:1007F0000F931F93FC01E480F58006811781D1805F
:100800008081823048F480E090E0A0E1B0E0E82A06
:10081000F92A0A2B1B2BA5C0843009F49FC0823013
:1008200021F4EE24FF24870105C0E114F104010541
:10083000110519F4E0E0F0E096C0628173819FEF4A
:10084000623879070CF05BC022E83FEF261B370BBC
:100850002A3131052CF020E030E040E050E02AC0A1
:10086000B801A701022E04C0769567955795479564
:100870000A94D2F781E090E0A0E0B0E004C0880FD5
:10088000991FAA1FBB1F2A95D2F70197A109B10989
:100890008E219F21A023B1230097A105B10521F04E
:1008A00081E090E0A0E0B0E09A01AB01282B392B69
:1008B0004A2B5B2BDA01C9018F779070A070B07062
:1008C00080349105A105B10539F427FF09C0205CEA
:1008D0003F4F4F4F5F4F04C0215C3F4F4F4F5F4F23
:1008E000E0E0F0E02030A0E03A07A0E04A07A0E412
:1008F0005A0710F0E1E0F0E079018A0127C0603882
:10090000710564F5FB01E158FF4FD801C7018F77EE
:100910009070A070B07080349105A105B10539F4D4
:10092000E7FE0DC080E490E0A0E0B0E004C08FE3FB
:1009300090E0A0E0B0E0E80EF91E0A1F1B1F17FFB1
:1009400005C016950795F794E794319687E01695BC
:100950000795F794E7948A95D1F705C0EE24FF2414
:100960008701EFEFF0E06E2F679566276795902F70
:100970009F77D794DD24D7948E2F8695492F462BC9
:10098000582F5D29B701CA011F910F91FF90EF9079
:10099000DF900895FC01DB01408151812281622FAB
:1009A0006F7770E0221F2227221F9381892F880FE3
:1009B000822B282F30E0991F9927991F11969C931D
:1009C000119721153105A9F54115510561057105ED
:1009D00011F482E037C082E89FEF13969C938E93C8
:1009E00012979A01AB0167E0220F331F441F551F76
:1009F0006A95D1F783E08C930DC0220F331F441FFB
:100A0000551F12968D919C911397019713969C9365
:100A10008E931297203080E0380780E0480780E40A
:100A2000580758F314962D933D934D935C93179765
:100A300008952F3F310579F4411551056105710580
:100A400019F484E08C93089564FF03C081E08C93D3
:100A500012C01C9210C02F57304013963C932E9317
:100A6000129783E08C9387E0440F551F661F771F12
:100A70008A95D1F7706414964D935D936D937C9332
:100A8000179708951F93DC01FB019C91923008F4A5
:100A900047C08081823008F443C0943051F41196ED
:100AA0001C91843099F58181682F70E0611B710978
:100AB0003FC0843021F0923031F48230B9F181812D
:100AC000882389F12DC011961C9111978230F1F085
:100AD00081811817D9F412962D913C911397828138
:100AE00093818217930794F028173907BCF0149666
:100AF0008D919D910D90BC91A02D248135814681D1
:100B00005781281739074A075B0718F4112341F06A
:100B10000AC082179307A407B50740F4112319F000
:100B200061E070E005C06FEF7FEF02C060E070E051
:100B3000CB011F910895DF93CF93CDB7DEB72797F1
:100B40000FB6F894DEBF0FBECDBF8C836D831B82C2
:100B50008C819AE0692F0E94B8158A838C819AE073
:100B6000692F0E94B815892F89838A81282F30E048
:100B70003F832E838E819F818230910509F44AC084
:100B80002E813F812330310534F48E819F81813065
:100B9000910571F0D5C02E813F812330310509F4D4
:100BA0006BC08E819F818430910509F497C0C8C0C5
:100BB0008D818130A1F4AAE3B0E0EAE3F0E0808126
:100BC000482F8981282F30E081E090E0022E02C07A
:100BD000880F991F0A94E2F7842B8C93B3C08D8100
:100BE0008823A9F4AAE3B0E0EAE3F0E08081482F8B
:100BF0008981282F30E081E090E0022E02C0880F2A
:100C0000991F0A94E2F7809584238C939BC081E01E
:100C10008B8398C08D818130A1F4A7E3B0E0E7E336
:100C2000F0E08081482F8981282F30E081E090E03A
:100C3000022E02C0880F991F0A94E2F7842B8C932E
:100C400081C08D818823A9F4A7E3B0E0E7E3F0E059
:100C50008081482F8981282F30E081E090E0022EAA
:100C600002C0880F991F0A94E2F7809584238C9321
:100C700069C081E08B8366C08D818130A1F4A4E3DB
:100C8000B0E0E4E3F0E08081482F8981282F30E054
:100C900081E090E0022E02C0880F991F0A94E2F7CB
:100CA000842B8C934FC08D818823A9F4A4E3B0E0FA
:100CB000E4E3F0E08081482F8981282F30E081E053
:100CC00090E0022E02C0880F991F0A94E2F78095E7
:100CD00084238C9337C081E08B8334C08D81813035
:100CE000A1F4A1E3B0E0E1E3F0E08081482F898145
:100CF000282F30E081E090E0022E02C0880F991F7B
:100D00000A94E2F7842B8C931DC08D818823A9F46B
:100D1000A1E3B0E0E1E3F0E08081482F8981282F52
:100D200030E081E090E0022E02C0880F991F0A9403
:100D3000E2F7809584238C9305C081E08B8302C009
:100D400081E08B838B8127960FB6F894DEBF0FBEB0
:100D5000CDBFCF91DF910895DF93CF9300D000D026
:100D60000F92CDB7DEB78A836B8319828A81282FD1
:100D700030E03D832C838C819D8182309105D9F0B8
:100D80002C813D812330310534F48C819D8181306B
:100D9000910561F01FC02C813D812330310581F028
:100DA0008C819D818430910581F014C0EAE3F0E0EC
:100DB0008B81808311C0E7E3F0E08B8180830CC0DE
:100DC000E4E3F0E08B81808307C0E1E3F0E08B8116
:100DD000808302C081E0898389810F900F900F90FA
:100DE0000F900F90CF91DF910895DF93CF93CDB700
:100DF000DEB727970FB6F894DEBF0FBECDBF8C834A
:100E00006D831B828C819AE0692F0E94B8158A83BA
:100E10008C819AE0692F0E94B815892F89838A8175
:100E2000282F30E03F832E838E819F818230910571
:100E300009F44AC02E813F812330310534F48E817C
:100E40009F818130910571F0D5C02E813F81233083
:100E5000310509F46BC08E819F818430910509F4BE
:100E600097C0C8C08D818130A1F4ABE3B0E0EBE363
:100E7000F0E08081482F8981282F30E081E090E0E8
:100E8000022E02C0880F991F0A94E2F7842B8C93DC
:100E9000B3C08D818823A9F4ABE3B0E0EBE3F0E0CD
:100EA0008081482F8981282F30E081E090E0022E58
:100EB00002C0880F991F0A94E2F7809584238C93CF
:100EC0009BC081E08B8398C08D818130A1F4A8E321
:100ED000B0E0E8E3F0E08081482F8981282F30E0FE
:100EE00081E090E0022E02C0880F991F0A94E2F779
:100EF000842B8C9381C08D818823A9F4A8E3B0E072
:100F0000E8E3F0E08081482F8981282F30E081E0FC
:100F100090E0022E02C0880F991F0A94E2F7809594
:100F200084238C9369C081E08B8366C08D8181307E
:100F3000A1F4A5E3B0E0E5E3F0E08081482F8981EA
:100F4000282F30E081E090E0022E02C0880F991F28
:100F50000A94E2F7842B8C934FC08D818823A9F4E7
:100F6000A5E3B0E0E5E3F0E08081482F8981282FF8
:100F700030E081E090E0022E02C0880F991F0A94B1
:100F8000E2F7809584238C9337C081E08B8334C053
:100F90008D818130A1F4A2E3B0E0E2E3F0E0808152
:100FA000482F8981282F30E081E090E0022E02C096
:100FB000880F991F0A94E2F7842B8C931DC08D81B2
:100FC0008823A9F4A2E3B0E0E2E3F0E08081482FB7
:100FD0008981282F30E081E090E0022E02C0880F46
:100FE000991F0A94E2F7809584238C9305C081E0D1
:100FF0008B8302C081E08B838B8127960FB6F89498
:10100000DEBF0FBECDBFCF91DF910895DF93CF93A9
:1010100000D000D00F92CDB7DEB78A836B831982E0
:101020008A81282F30E03D832C838C819D81823002
:101030009105D9F02C813D812330310534F48C8128
:101040009D818130910561F01FC02C813D8123304D
:10105000310581F08C819D818430910581F014C02F
:10106000EBE3F0E08B81808311C0E8E3F0E08B815B
:1010700080830CC0E5E3F0E08B81808307C0E2E36E
:10108000F0E08B81808302C081E0898389810F90A9
:101090000F900F900F900F90CF91DF910895DF93F5
:1010A000CF93CDB7DEB728970FB6F894DEBF0FBE4B
:1010B000CDBF8C837E836D831B828C819AE0692FE8
:1010C0000E94B8158A838C819AE0692F0E94B81516
:1010D000892F89838D819E81009709F474C08A814C
:1010E000282F30E038872F834F81588542305105B3
:1010F00059F18F8198858330910534F42F8138859B
:101100002130310569F05CC04F815885433051056D
:1011100079F18F8198858430910509F43DC050C0E4
:10112000E9E3F0E08081282F30E08981882F90E08A
:10113000A90102C0559547958A95E2F7CA018170C9
:10114000ED81FE81808341C0E6E3F0E08081282FBD
:1011500030E08981882F90E0A90102C0559547951C
:101160008A95E2F7CA018170ED81FE8180832DC0EE
:10117000E3E3F0E08081282F30E08981882F90E040
:10118000A90102C0559547958A95E2F7CA01817079
:10119000ED81FE81808319C0E0E3F0E08081282F9B
:1011A00030E08981882F90E0A90102C055954795CC
:1011B0008A95E2F7CA018170ED81FE81808305C0C6
:1011C00081E08B8302C082E08B838B8128960FB6EF
:1011D000F894DEBF0FBECDBFCF91DF910895DF93AE
:1011E000CF9300D000D000D0CDB7DEB78A837C8308
:1011F0006B8319828B819C81009709F43FC08A819F
:10120000282F30E03E832D838D819E818230910591
:10121000E9F02D813E812330310534F48D819E81AA
:101220008130910561F027C02D813E812330310549
:10123000A1F08D819E8184309105B1F01CC0E9E35D
:10124000F0E08081EB81FC8180831AC0E6E3F0E06E
:101250008081EB81FC81808313C0E3E3F0E0808137
:10126000EB81FC8180830CC0E0E3F0E08081EB81C6
:10127000FC81808305C081E0898302C082E089838C
:10128000898126960FB6F894DEBF0FBECDBFCF91F1
:10129000DF910895DF93CF9300D000D000D0CDB779
:1012A000DEB78C831B828C819AE0692F0E94B8156F
:1012B0008A838C819AE0692F0E94B815892F8983CF
:1012C0008A81282F30E03E832D838D819E8182305C
:1012D000910551F12D813E812330310534F48D810A
:1012E0009E818130910561F05BC02D813E8123306C
:1012F000310571F18D819E8184309105E9F150C0F5
:10130000ABE3B0E0EBE3F0E08081482F8981282F48
:1013100030E081E090E0022E02C0880F991F0A940D
:10132000E2F784278C933EC0A8E3B0E0E8E3F0E066
:101330008081482F8981282F30E081E090E0022EC3
:1013400002C0880F991F0A94E2F784278C932AC061
:10135000A5E3B0E0E5E3F0E08081482F8981282F04
:1013600030E081E090E0022E02C0880F991F0A94BD
:10137000E2F784278C9316C0A2E3B0E0E2E3F0E04A
:101380008081482F8981282F30E081E090E0022E73
:1013900002C0880F991F0A94E2F784278C9302C039
:1013A00081E08B838B8126960FB6F894DEBF0FBE4B
:1013B000CDBFCF91DF910895DF93CF9300D000D0C0
:1013C000CDB7DEB78A8319828A81282F30E03C832B
:1013D0002B838B819C8182309105F1F02B813C81A4
:1013E0002330310534F48B819C818130910561F08B
:1013F0002BC02B813C8123303105B1F08B819C8146
:1014000084309105C9F020C0ABE3B0E0EBE3F0E03D
:10141000808180958C931AC0A8E3B0E0E8E3F0E007
:10142000808180958C9312C0A5E3B0E0E5E3F0E005
:10143000808180958C930AC0A2E3B0E0E2E3F0E003
:10144000808180958C9302C081E0898389810F908F
:101450000F900F900F90CF91DF910895DF93CF936E
:1014600000D000D00F92CDB7DEB79B838A8319825C
:101470008A819B81009741F1EA81FB81808161E053
:101480000E949B05EA81FB818181282F30E03D830A
:101490002C838C819D81009731F02C813D812130FE
:1014A000310541F00EC0EA81FB81808160E00E943D
:1014B000F5060CC0EA81FB81808161E00E94F5069F
:1014C00005C081E0898302C082E0898389810F9011
:1014D0000F900F900F900F90CF91DF910895DF93B1
:1014E000CF9300D000D00F92CDB7DEB79B838A8315
:1014F00019828A819B81009711F1EA81FB818181A8
:10150000282F30E03D832C838C819D81009731F022
:101510002C813D812130310541F00EC0EA81FB81F3
:10152000808161E00E94F5060CC0EA81FB81808128
:1015300060E00E94F50605C081E0898302C082E078
:10154000898389810F900F900F900F900F90CF910A
:10155000DF910895DF93CF9300D000D00F92CDB7E5
:10156000DEB79B838A8319828A819B81009711F160
:10157000EA81FB818181282F30E03D832C838C819F
:101580009D81009731F02C813D812130310541F062
:101590000EC0EA81FB81808160E00E94F5060CC0EC
:1015A000EA81FB81808161E00E94F50605C081E04F
:1015B000898302C082E0898389810F900F900F9008
:1015C0000F900F90CF91DF910895DF93CF9300D0CC
:1015D00000D0CDB7DEB79B838A8319828A819B8135
:1015E000009741F0EA81FB8180810E944A0989814C
:1015F0008C8304C082E0898389818C838C810F90E5
:101600000F900F900F90CF91DF910895DF93CF93BC
:10161000CDB7DEB7A3970FB6F894DEBF0FBECDBF30
:101620008BA31E8E84E08D8F81E28F8F82E288A350
:1016300083E289A384E28AA31E8E20C08E8D282F88
:1016400030E0CE014F96FC01E20FF31F40818BA1E9
:10165000282F30E08E8D882F90E00496B90102C0CB
:10166000759567958A95E2F7CB01982F9170842F35
:10167000692F0E94F5068E8D8F5F8E8F9E8D8D8DCA
:101680009817E0F280E261E00E94F50680E090E0C9
:10169000A0E0B0E4898F9A8FAB8FBC8F698D7A8D73
:1016A0008B8D9C8D20E030E04AE755E40E941702C4
:1016B000DC01CB018D8B9E8BAF8BB88F6D897E89C2
:1016C0008F89988D20E030E040E85FE30E9471034D
:1016D00088232CF481E090E09C8B8B8B3FC06D893C
:1016E0007E898F89988D20E03FEF4FE757E40E9475
:1016F000110318164CF5698D7A8D8B8D9C8D20E029
:1017000030E040E251E40E941702DC01CB01BC0151
:10171000CD010E944100DC01CB019C8B8B8B0FC063
:1017200080E991E09A8B898B89899A890197F1F7F1
:101730009A8B898B8B899C8901979C8B8B8B8B894E
:101740009C89009769F714C06D897E898F89988D6F
:101750000E944100DC01CB019C8B8B8B8B899C8987
:10176000988B8F878F8598890197F1F7988B8F8752
:1017700080E260E00E94F5061E8E1FC08E8D282F2D
:1017800030E0CE014F96FC01E20FF31F40818BA1A8
:10179000282F30E08E8D882F90E0B90102C075951A
:1017A00067958A95E2F7CB01982F9170842F692F66
:1017B0000E94F5068E8D8F5F8E8F9E8D8D8D981772
:1017C000E8F280E261E00E94F50680E090E0A0E0AF
:1017D000B0E48B879C87AD87BE876B857C858D85C4
:1017E0009E8520E030E04AE755E40E941702DC01C4
:1017F000CB018F839887A987BA876F817885898580
:101800009A8520E030E040E85FE30E94710388237E
:101810002CF481E090E09E838D833FC06F817885BA
:1018200089859A8520E03FEF4FE757E40E94110336
:1018300018164CF56B857C858D859E8520E030E003
:1018400040E251E40E941702DC01CB01BC01CD0152
:101850000E944100DC01CB019E838D830FC080E993
:1018600091E09C838B838B819C810197F1F79C8312
:101870008B838D819E8101979E838D838D819E8137
:10188000009769F714C06F81788589859A850E94D1
:101890004100DC01CB019E838D838D819E819A83E3
:1018A000898389819A810197F1F79A83898380E2FC
:1018B00060E00E94F506A3960FB6F894DEBF0FBE57
:1018C000CDBFCF91DF910895DF93CF93CDB7DEB732
:1018D0006D970FB6F894DEBF0FBECDBF1D8E8EE1A3
:1018E00061E00E949B058FE161E00E949B0580E220
:1018F00061E00E949B0581E261E00E949B0582E21B
:1019000061E00E949B0583E261E00E949B0584E206
:1019100061E00E949B0580E090E0ACE0B2E4898F3A
:101920009A8FAB8FBC8F698D7A8D8B8D9C8D20E0CB
:1019300030E04AE755E40E941702DC01CB018D8BB1
:101940009E8BAF8BB88F6D897E898F89988D20E0B3
:1019500030E040E85FE30E94710388232CF481E0CB
:1019600090E09C8B8B8B3FC06D897E898F89988D91
:1019700020E03FEF4FE757E40E94110318164CF5A3
:10198000698D7A8D8B8D9C8D20E030E040E251E4B2
:101990000E941702DC01CB01BC01CD010E94410075
:1019A000DC01CB019C8B8B8B0FC080E991E09A8B83
:1019B000898B89899A890197F1F79A8B898B8B8911
:1019C0009C8901979C8B8B8B8B899C89009769F7ED
:1019D00014C06D897E898F89988D0E944100DC0139
:1019E000CB019C8B8B8B8B899C89988B8F878F8568
:1019F00098890197F1F7988B8F8781E260E00E94C8
:101A0000F50682E261E00E94F50683E260E00E9452
:101A1000F50684E260E00E94F50680E261E00E9443
:101A2000F50680E090E0A0E0B0E48B879C87AD876E
:101A3000BE876B857C858D859E8520E030E04AE7FA
:101A400055E40E941702DC01CB018F839887A98798
:101A5000BA876F81788589859A8520E030E040E8F3
:101A60005FE30E94710388232CF481E090E09E8361
:101A70008D833FC06F81788589859A8520E03FEF0F
:101A80004FE757E40E94110318164CF56B857C85CF
:101A90008D859E8520E030E040E251E40E941702EF
:101AA000DC01CB01BC01CD010E944100DC01CB0176
:101AB0009E838D830FC080E991E09C838B838B8113
:101AC0009C810197F1F79C838B838D819E81019787
:101AD0009E838D838D819E81009769F714C06F81ED
:101AE000788589859A850E944100DC01CB019E831F
:101AF0008D838D819E819A83898389819A810197C3
:101B0000F1F79A83898380E260E00E94F50688E21B
:101B10000E949D0D8CE00E949D0D81E00E949D0D14
:101B200086E00E949D0D8D8D6D960FB6F894DEBFF8
:101B30000FBECDBFCF91DF910895DF93CF9300D03B
:101B4000CDB7DEB78A8319828EE160E00E94F50688
:101B50008FE160E00E94F5068A810E94060B898170
:101B60000F900F90CF91DF910895DF93CF9300D026
:101B7000CDB7DEB78A8319828EE161E00E94F50657
:101B80008FE160E00E94F5068A810E94060B898140
:101B90000F900F90CF91DF910895DF93CF93CDB742
:101BA000DEB7E1970FB6F894DEBF0FBECDBF99AB9D
:101BB00088AB1FA688A999A9009709F493C11EA60E
:101BC0001DA61CA61BA67FC18DA5803161F49BA517
:101BD00081E089278BA78BA560E00E9412101DA6CB
:101BE0008CA58F5F8CA78CA5823009F0E7C080E0C0
:101BF00090E0AAEFB3E48FA398A7A9A7BAA76FA113
:101C000078A589A59AA520E030E04AE755E40E942E
:101C10001702DC01CB018BA39CA3ADA3BEA36BA1D8
:101C20007CA18DA19EA120E030E040E85FE30E940E
:101C3000710388232CF481E090E09AA389A33FC02C
:101C40006BA17CA18DA19EA120E03FEF4FE757E45F
:101C50000E94110318164CF56FA178A589A59AA5C5
:101C600020E030E040E251E40E941702DC01CB01A9
:101C7000BC01CD010E944100DC01CB019AA389A3E4
:101C80000FC080E991E098A38F8F8F8D98A1019765
:101C9000F1F798A38F8F89A19AA101979AA389A39D
:101CA00089A19AA1009769F714C06BA17CA18DA1AD
:101CB0009EA10E944100DC01CB019AA389A389A1C6
:101CC0009AA19E8F8D8F8D8D9E8D0197F1F79E8F9E
:101CD0008D8F0E943E1080E090E0AAEFB3E4898FE0
:101CE0009A8FAB8FBC8F698D7A8D8B8D9C8D20E008
:101CF00030E04AE755E40E941702DC01CB018D8BEE
:101D00009E8BAF8BB88F6D897E898F89988D20E0EF
:101D100030E040E85FE30E94710388232CF481E007
:101D200090E09C8B8B8B3FC06D897E898F89988DCD
:101D300020E03FEF4FE757E40E94110318164CF5DF
:101D4000698D7A8D8B8D9C8D20E030E040E251E4EE
:101D50000E941702DC01CB01BC01CD010E944100B1
:101D6000DC01CB019C8B8B8B0FC080E991E09A8BBF
:101D7000898B89899A890197F1F79A8B898B8B894D
:101D80009C8901979C8B8B8B8B899C89009769F729
:101D900014C06D897E898F89988D0E944100DC0175
:101DA000CB019C8B8B8B8B899C89988B8F878F85A4
:101DB00098890197F1F7988B8F871CA680E090E0B7
:101DC000A0E0B0E08B879C87AD87BE876B857C8564
:101DD0008D859E8520E030E04AE755E40E94170299
:101DE000DC01CB018F839887A987BA876F817885BB
:101DF00089859A8520E030E040E85FE30E94710326
:101E000088232CF481E090E09E838D833FC06F8116
:101E1000788589859A8520E03FEF4FE757E40E9457
:101E2000110318164CF56B857C858D859E8520E009
:101E300030E040E251E40E941702DC01CB01BC011A
:101E4000CD010E944100DC01CB019E838D830FC038
:101E500080E991E09C838B838B819C810197F1F7D2
:101E60009C838B838D819E8101979E838D838D8141
:101E70009E81009769F714C06F81788589859A855E
:101E80000E944100DC01CB019E838D838D819E8168
:101E90009A83898389819A810197F1F79A8389834B
:101EA0008EA5282F332727FD309588A999A9FC01F5
:101EB000E20FF31F80810E94B50D8EA58F5F8EA764
:101EC0008DA58F5F8DA78EA5282F332727FD3095F1
:101ED00088A999A9FC01E20FF31F8081882309F0EA
:101EE00073CE02C082E08FA78FA5E1960FB6F8945B
:101EF000DEBF0FBECDBFCF91DF9108950F931F932B
:101F0000DF93CF93CDB7DEB760970FB6F894DEBFFF
:101F10000FBECDBF6D877E878F87988B1A821982FF
:101F20008D859E85AF85B8890097A105B10521F4FF
:101F300080E30E94B50D6AC08D859E85AF85B88906
:101F4000BB230CF042C08DE20E94B50D8D859E85AD
:101F5000AF85B889B095A095909581959F4FAF4F6B
:101F6000BF4F8D879E87AF87B88B2FC08981082F81
:101F7000112707FD10958D859E85AF85B8892AE0CC
:101F800030E040E050E0BC01CD010E94C415DC010E
:101F9000CB01282FCE010396FC01E00FF11F208317
:101FA0008D859E85AF85B8892AE030E040E050E01D
:101FB000BC01CD010E94C415DA01C9018D879E873D
:101FC000AF87B88B89818F5F89838D859E85AF852B
:101FD000B889181619061A061B0644F28981815021
:101FE000898311C08981282F332727FD3095CE01A1
:101FF0000396FC01E20FF31F8081805D0E94B50D06
:102000008981815089838981882364F78A816096D8
:102010000FB6F894DEBF0FBECDBFCF91DF911F91F9
:102020000F910895DF93CF9300D000D0CDB7DEB7E6
:102030008B836C831A828B81833080F48C81803116
:1020400068F48B81882319F48C81898309C08B8182
:10205000813031F48C81805C898302C081E08A8385
:1020600089818068898389810E949D0D8A810F9072
:102070000F900F900F90CF91DF910895DF93CF9342
:102080000F92CDB7DEB7198281E00E949D0D898144
:102090000F90CF91DF910895DF93CF9300D000D0C0
:1020A0000F92CDB7DEB78B836C834D831A828B8101
:1020B0006C810E941210198206C080E20E94B50D48
:1020C00089818F5F898399818D819817B0F38A8187
:1020D0000F900F900F900F900F90CF91DF91089578
:1020E000DF93CF9300D000D000D0CDB7DEB79D8373
:1020F0008C836E831B828C819D81009751F18E8130
:10210000882F90E00197880F991F880F991F880FDB
:10211000991F8A8319828A8180648A838A810E94B6
:102120009D0D19820EC08981282F30E08C819D8100
:10213000FC01E20FF31F80810E94B50D89818F5F42
:1021400089838981883078F380E060E00E941210F2
:1021500002C082E08B838B8126960FB6F894DEBF97
:102160000FBECDBFCF91DF910895DF93CF9300D005
:10217000CDB7DEB78A8319828A8181500E94B50D5E
:1021800089810F900F90CF91DF910895DF93CF93C6
:102190000F92CDB7DEB7198288E260E00E949B05FE
:1021A00089E260E00E949B058AE260E00E949B0554
:1021B0008BE260E00E949B0588E261E00E94F506E8
:1021C00089E261E00E94F5068AE261E00E94F5067C
:1021D0008BE261E00E94F5068CE261E00E949B05C3
:1021E0008DE261E00E949B058EE261E00E949B050A
:1021F0008FE261E00E949B058CE261E00E94F5069F
:102200008DE261E00E94F5068EE261E00E94F50633
:102210008FE261E00E94F50689810F90CF91DF91F6
:102220000895DF93CF93CDB7DEB728970FB6F89414
:10223000DEBF0FBECDBF98878F831D828F819885AB
:10224000009709F468C01A828FEF89831B8257C0F8
:102250008B81882F90E0FC01E358FF4F808160E084
:102260000E94F5061C8238C08C81882F90E0FC010A
:10227000EF57FF4F80819E012A5F3F4FB9010E94B7
:102280004F088E81882329F50DC08C81882F90E01E
:10229000FC01EF57FF4F80819E012A5F3F4FB9013C
:1022A0000E944F088E81882381F38C81482F50E053
:1022B0008B81282F30E0CA01880F991F880F991F42
:1022C000820F931FFC01EB57FF4F8081898381E0D0
:1022D0008A838C818F5F8C838C81843018F48A810F
:1022E000882311F28B81882F90E0FC01E358FF4F87
:1022F000808161E00E94F5068B818F5F8B838B81EB
:10230000843020F48A81882309F4A2CFEF81F885F4
:102310008981808302C082E08D838D8128960FB6EB
:10232000F894DEBF0FBECDBFCF91DF910895DF934C
:10233000CF93CDB7DEB7E7970FB6F894DEBF0FBEE9
:10234000CDBF9E01295E3F4F3FA72EA78DE990E0AC
:1023500099AB88AB98E09AABE8A9F9A9008028A9C5
:1023600039A92F5F3F4F39AB28ABEEA5FFA50082FF
:102370002EA53FA52F5F3F4F3FA72EA73AA931506B
:102380003AAB8AA9882341F7FE017F96FCABEBAB01
:1023900025E930E03EAB2DAB38E03FABEDA9FEA91F
:1023A00000802DA93EA92F5F3F4F3EAB2DABEBA97F
:1023B000FCA900822BA93CA92F5F3F4F3CAB2BAB64
:1023C0003FA931503FAB8FA9882341F71E8A1D8A50
:1023D0001C8A1B8A1A8A198A188A1F8685E288A78E
:1023E00019A60E94640C0E94C610CE0188960E9415
:1023F0002E0ACE01479661E00E947010CE014F96E2
:1024000062E00E94701080E690E00E94CD0D9889F5
:1024100081E0692F0E94121081E00E94B510CE0168
:1024200087960E9411118FA1E82FF0E0FDA7ECA77D
:102430002CA53DA52534310509F431C18CA59DA5F8
:102440008634910584F4ECA5FDA5FF2344F32CA567
:102450003DA52A303105D4F08CA59DA58334910586
:1024600009F459C1DCCFECA5FDA5E235F10509F46D
:1024700069C02CA53DA52335310509F467C18CA59C
:102480009DA58C34910509F4B3C0C9CF8FA18630C6
:1024900070F08F85813021F48889833009F4BFCFB3
:1024A0008F85823021F48889863009F4B8CF9889E5
:1024B00080E0692F0E9412108FA1882F90E0A0E089
:1024C000B0E0BC01CD010E947E0F8889E82FFF2774
:1024D000E7FDF095FBA7EAA72AA53BA52330310528
:1024E00029F18AA59BA58430910554F4EAA5FBA5A2
:1024F0003097B1F02AA53BA521303105A1F08FCF4F
:102500008AA59BA586309105B9F0EAA5FBA5E73021
:10251000F105A9F02AA53BA52430310551F07FCF64
:102520008FA18E8B7CCF8FA18D8B79CF8FA18C8B40
:1025300076CF8FA18B8B73CF8FA18A8B70CF8FA11A
:10254000898B6DCF8F85882399F48889813081F4B8
:10255000988981E0692F41E00E944C10188A98897F
:1025600081E0692F0E94121081E00E94B51057CFC0
:102570008F858130A1F48889843089F4988981E03D
:10258000692F41E00E944C1083E0888B988981E09C
:10259000692F0E94121081E00E94B51040CF8F85F4
:1025A0008230A1F48889873089F4988981E0692F85
:1025B00041E00E944C1086E0888B988981E0692F69
:1025C0000E94121081E00E94B51029CF988981E005
:1025D000692F41E00E944C1088898F5F888B988911
:1025E00081E0692F0E94121081E00E94B51017CF80
:1025F0008F858823A1F48889882389F4988981E0CC
:10260000692F41E00E944C1081E0888B988981E01D
:10261000692F0E94121081E00E94B51000CF8F85B3
:102620008130A1F48889833089F4988981E0692F09
:1026300041E00E944C1084E0888B988981E0692FEA
:102640000E94121081E00E94B510E9CE8F85823081
:10265000A1F48889863089F4988981E0692F41E066
:102660000E944C1087E0888B988981E0692F0E9436
:10267000121081E00E94B510D2CE988981E0692FB6
:1026800041E00E944C1088898150888B988981E0B4
:10269000692F0E94121081E00E94B510C0CE8F8574
:1026A0008F5F8F878F85813089F4988981E0692FCA
:1026B00041E00E944C1083E0888B988981E0692F6B
:1026C0000E94121081E00E94B510A9CE8F85823041
:1026D00089F4988981E0692F41E00E944C1086E0DE
:1026E000888B988981E0692F0E94121081E00E94F6
:1026F000B51095CE1F86988981E0692F41E00E9430
:102700004C10188A988981E0692F0E94121081E08C
:102710000E94B51084CE1F860E943E1080E690E095
:102720000E94CD0D188A988981E0692F0E941210AD
:1027300081E00E94B510CE0188960E94AA0A1E8AE6
:102740001D8A1C8A1B8A1A8A198A69CE8E89882357
:1027500081F48D89882369F48C89882351F48B89CD
:10276000882339F48A89882321F48989882309F404
:1027700056CE1F86988981E0692F41E00E944C1057
:10278000CE0187960E9411118FA1833409F447CEA0
:1027900080E090E0A8ECB2E48B879C87AD87BE8791
:1027A0006B857C858D859E8520E030E04AE755E489
:1027B0000E941702DC01CB018F839887A987BA8713
:1027C0006F81788589859A8520E030E040E85FE375
:1027D0000E94710388232CF481E090E09E838D8316
:1027E0003FC06F81788589859A8520E03FEF4FE76C
:1027F00057E40E94110318164CF56B857C858D8576
:102800009E8520E030E040E251E40E941702DC01A6
:10281000CB01BC01CD010E944100DC01CB019E83B4
:102820008D830FC080E991E09C838B838B819C8199
:102830000197F1F79C838B838D819E8101979E8305
:102840008D838D819E81009769F714C06F81788593
:1028500089859A850E944100DC01CB019E838D838E
:102860008D819E819A83898389819A810197F1F76D
:102870009A8389838A89882309F046C189898823B4
:1028800009F042C18C89882309F0CEC08B89882346
:1028900009F0CAC08E898823D1F48D898823B9F4C0
:1028A00081E060E00E94121082E00E94B51089E68B
:1028B00090E00E94CD0D81E06FE00E94121082E056
:1028C0000E94B510CE0188960E946F0AA8CD8D890E
:1028D000882309F05CC08E8981508E8B80E060E097
:1028E0000E9412108E89882F90E0A0E0B0E0BC0119
:1028F000CD010E947E0F89E08D8B80E061E00E9417
:1029000012108D89882F90E0A0E0B0E0BC01CD01CD
:102910000E947E0F85E08C8B89E08B8B80E064E0E9
:102920000E9412108B89882F90E0A0E0B0E0BC01DB
:10293000CD010E947E0F80E063E00E9412108C891E
:10294000882F90E0A0E0B0E0BC01CD010E947E0F96
:1029500085E08A8B89E0898B80E067E00E94121015
:102960008989882F90E0A0E0B0E0BC01CD010E94F1
:102970007E0F80E066E00E9412108A89882F90E026
:10298000A0E0B0E0BC01CD010E947E0FF9CE8D89A0
:1029900081508D8B80E061E00E9412108D89882F1C
:1029A00090E0A0E0B0E0BC01CD010E947E0F85E088
:1029B0008C8B89E08B8B80E064E00E9412108B8905
:1029C000882F90E0A0E0B0E0BC01CD010E947E0F16
:1029D00080E063E00E9412108C89882F90E0A0E0D4
:1029E000B0E0BC01CD010E947E0F85E08A8B89E0BA
:1029F000898B80E067E00E9412108989882F90E01F
:102A0000A0E0B0E0BC01CD010E947E0F80E066E056
:102A10000E9412108A89882F90E0A0E0B0E0BC01EB
:102A2000CD010E947E0FACCE8B898823F1F58C8975
:102A300081508C8B80E063E00E9412108C89882F7B
:102A400090E0A0E0B0E0BC01CD010E947E0F89E0E3
:102A50008B8B80E064E00E9412108B89882F90E0BD
:102A6000A0E0B0E0BC01CD010E947E0F85E08A8B22
:102A700089E0898B80E067E00E9412108989882FA5
:102A800090E0A0E0B0E0BC01CD010E947E0F80E0AC
:102A900066E00E9412108A89882F90E0A0E0B0E0E2
:102AA000BC01CD010E947E0F6BCE8B8981508B8B38
:102AB00080E064E00E9412108B89882F90E0A0E0F3
:102AC000B0E0BC01CD010E947E0F85E08A8B89E0D9
:102AD000898B80E067E00E9412108989882F90E03E
:102AE000A0E0B0E0BC01CD010E947E0F80E066E076
:102AF0000E9412108A89882F90E0A0E0B0E0BC010B
:102B0000CD010E947E0F3CCE8989882301F58A89F8
:102B100081508A8B80E066E00E9412108A89882F9B
:102B200090E0A0E0B0E0BC01CD010E947E0F89E002
:102B3000898B80E067E00E9412108989882F90E0DD
:102B4000A0E0B0E0BC01CD010E947E0F19CE8989C2
:102B50008150898B80E067E00E9412108989882F5C
:102B600090E0A0E0B0E0BC01CD010E947E0F08CE55
:102B7000991B79E004C0991F961708F0961B881FCF
:102B80007A95C9F78095089597FB092E05260ED0F2
:102B900057FD04D014D00AD0001C38F4509540954D
:102BA000309521953F4F4F4F5F4F0895F6F7909521
:102BB0008095709561957F4F8F4F9F4F0895A1E24B
:102BC0001A2EAA1BBB1BFD010DC0AA1FBB1FEE1FA7
:102BD000FF1FA217B307E407F50720F0A21BB30BF2
:102BE000E40BF50B661F771F881F991F1A9469F76E
:102BF00060957095809590959B01AC01BD01CF01CA
:102C000008952F923F924F925F926F927F928F9290
:102C10009F92AF92BF92CF92DF92EF92FF920F936B
:102C20001F93CF93DF93CDB7DEB7CA1BDB0B0FB675
:102C3000F894DEBF0FBECDBF09942A883988488832
:102C40005F846E847D848C849B84AA84B984C884C8
:102C5000DF80EE80FD800C811B81AA81B981CE0FBF
:102C6000D11D0FB6F894DEBF0FBECDBFED010895A4
:042C7000F894FFCF06
:102C740030303A30303A303000202020497473200C
:102C840054696D650000000000000000002C2D2E2A
:102C94002F28292A2B070809520405064C01020390
:102CA4004543003D530E0E041F040E1100040E1F75
:062CB4000E0E0E0E0000E2
:00000001FF
